{
  "address": "0x5FbDB2315678afecb367f032d93F642f64180aa3",
  "abi": [
    {
      "inputs": [
        {
          "internalType": "uint256",
          "name": "_amount",
          "type": "uint256"
        },
        {
          "internalType": "string",
          "name": "songName",
          "type": "string"
        },
        {
          "internalType": "string",
          "name": "songSymbol",
          "type": "string"
        }
      ],
      "stateMutability": "nonpayable",
      "type": "constructor"
    },
    {
      "inputs": [],
      "name": "AuctionExists",
      "type": "error"
    },
    {
      "anonymous": false,
      "inputs": [
        {
          "indexed": true,
          "internalType": "address",
          "name": "owner",
          "type": "address"
        },
        {
          "indexed": true,
          "internalType": "address",
          "name": "approved",
          "type": "address"
        },
        {
          "indexed": true,
          "internalType": "uint256",
          "name": "tokenId",
          "type": "uint256"
        }
      ],
      "name": "Approval",
      "type": "event"
    },
    {
      "anonymous": false,
      "inputs": [
        {
          "indexed": true,
          "internalType": "address",
          "name": "owner",
          "type": "address"
        },
        {
          "indexed": true,
          "internalType": "address",
          "name": "operator",
          "type": "address"
        },
        {
          "indexed": false,
          "internalType": "bool",
          "name": "approved",
          "type": "bool"
        }
      ],
      "name": "ApprovalForAll",
      "type": "event"
    },
    {
      "anonymous": false,
      "inputs": [
        {
          "indexed": true,
          "internalType": "address",
          "name": "previousOwner",
          "type": "address"
        },
        {
          "indexed": true,
          "internalType": "address",
          "name": "newOwner",
          "type": "address"
        }
      ],
      "name": "OwnershipTransferred",
      "type": "event"
    },
    {
      "anonymous": false,
      "inputs": [
        {
          "indexed": true,
          "internalType": "address",
          "name": "from",
          "type": "address"
        },
        {
          "indexed": true,
          "internalType": "address",
          "name": "to",
          "type": "address"
        },
        {
          "indexed": true,
          "internalType": "uint256",
          "name": "tokenId",
          "type": "uint256"
        }
      ],
      "name": "Transfer",
      "type": "event"
    },
    {
      "inputs": [],
      "name": "TOKEN_URI",
      "outputs": [
        {
          "internalType": "string",
          "name": "",
          "type": "string"
        }
      ],
      "stateMutability": "view",
      "type": "function"
    },
    {
      "inputs": [
        {
          "internalType": "address",
          "name": "to",
          "type": "address"
        },
        {
          "internalType": "uint256",
          "name": "tokenId",
          "type": "uint256"
        }
      ],
      "name": "approve",
      "outputs": [],
      "stateMutability": "nonpayable",
      "type": "function"
    },
    {
      "inputs": [
        {
          "internalType": "address",
          "name": "owner",
          "type": "address"
        }
      ],
      "name": "balanceOf",
      "outputs": [
        {
          "internalType": "uint256",
          "name": "",
          "type": "uint256"
        }
      ],
      "stateMutability": "view",
      "type": "function"
    },
    {
      "inputs": [
        {
          "internalType": "address",
          "name": "_nft",
          "type": "address"
        }
      ],
      "name": "createAuction",
      "outputs": [],
      "stateMutability": "nonpayable",
      "type": "function"
    },
    {
      "inputs": [
        {
          "internalType": "uint256",
          "name": "tokenId",
          "type": "uint256"
        }
      ],
      "name": "getApproved",
      "outputs": [
        {
          "internalType": "address",
          "name": "",
          "type": "address"
        }
      ],
      "stateMutability": "view",
      "type": "function"
    },
    {
      "inputs": [],
      "name": "getAuctionAddress",
      "outputs": [
        {
          "internalType": "address",
          "name": "_auctionAddress",
          "type": "address"
        }
      ],
      "stateMutability": "view",
      "type": "function"
    },
    {
      "inputs": [
        {
          "internalType": "address",
          "name": "owner",
          "type": "address"
        },
        {
          "internalType": "address",
          "name": "operator",
          "type": "address"
        }
      ],
      "name": "isApprovedForAll",
      "outputs": [
        {
          "internalType": "bool",
          "name": "",
          "type": "bool"
        }
      ],
      "stateMutability": "view",
      "type": "function"
    },
    {
      "inputs": [],
      "name": "name",
      "outputs": [
        {
          "internalType": "string",
          "name": "",
          "type": "string"
        }
      ],
      "stateMutability": "view",
      "type": "function"
    },
    {
      "inputs": [],
      "name": "owner",
      "outputs": [
        {
          "internalType": "address",
          "name": "",
          "type": "address"
        }
      ],
      "stateMutability": "view",
      "type": "function"
    },
    {
      "inputs": [
        {
          "internalType": "uint256",
          "name": "tokenId",
          "type": "uint256"
        }
      ],
      "name": "ownerOf",
      "outputs": [
        {
          "internalType": "address",
          "name": "",
          "type": "address"
        }
      ],
      "stateMutability": "view",
      "type": "function"
    },
    {
      "inputs": [],
      "name": "renounceOwnership",
      "outputs": [],
      "stateMutability": "nonpayable",
      "type": "function"
    },
    {
      "inputs": [
        {
          "internalType": "address",
          "name": "from",
          "type": "address"
        },
        {
          "internalType": "address",
          "name": "to",
          "type": "address"
        },
        {
          "internalType": "uint256",
          "name": "tokenId",
          "type": "uint256"
        }
      ],
      "name": "safeTransferFrom",
      "outputs": [],
      "stateMutability": "nonpayable",
      "type": "function"
    },
    {
      "inputs": [
        {
          "internalType": "address",
          "name": "from",
          "type": "address"
        },
        {
          "internalType": "address",
          "name": "to",
          "type": "address"
        },
        {
          "internalType": "uint256",
          "name": "tokenId",
          "type": "uint256"
        },
        {
          "internalType": "bytes",
          "name": "data",
          "type": "bytes"
        }
      ],
      "name": "safeTransferFrom",
      "outputs": [],
      "stateMutability": "nonpayable",
      "type": "function"
    },
    {
      "inputs": [
        {
          "internalType": "address",
          "name": "operator",
          "type": "address"
        },
        {
          "internalType": "bool",
          "name": "approved",
          "type": "bool"
        }
      ],
      "name": "setApprovalForAll",
      "outputs": [],
      "stateMutability": "nonpayable",
      "type": "function"
    },
    {
      "inputs": [
        {
          "internalType": "bytes4",
          "name": "interfaceId",
          "type": "bytes4"
        }
      ],
      "name": "supportsInterface",
      "outputs": [
        {
          "internalType": "bool",
          "name": "",
          "type": "bool"
        }
      ],
      "stateMutability": "view",
      "type": "function"
    },
    {
      "inputs": [],
      "name": "symbol",
      "outputs": [
        {
          "internalType": "string",
          "name": "",
          "type": "string"
        }
      ],
      "stateMutability": "view",
      "type": "function"
    },
    {
      "inputs": [
        {
          "internalType": "uint256",
          "name": "",
          "type": "uint256"
        }
      ],
      "name": "tokenId",
      "outputs": [
        {
          "internalType": "string",
          "name": "",
          "type": "string"
        }
      ],
      "stateMutability": "view",
      "type": "function"
    },
    {
      "inputs": [
        {
          "internalType": "uint256",
          "name": "tokenId",
          "type": "uint256"
        }
      ],
      "name": "tokenURI",
      "outputs": [
        {
          "internalType": "string",
          "name": "",
          "type": "string"
        }
      ],
      "stateMutability": "view",
      "type": "function"
    },
    {
      "inputs": [
        {
          "internalType": "address",
          "name": "from",
          "type": "address"
        },
        {
          "internalType": "address",
          "name": "to",
          "type": "address"
        },
        {
          "internalType": "uint256",
          "name": "tokenId",
          "type": "uint256"
        }
      ],
      "name": "transferFrom",
      "outputs": [],
      "stateMutability": "nonpayable",
      "type": "function"
    },
    {
      "inputs": [
        {
          "internalType": "address",
          "name": "newOwner",
          "type": "address"
        }
      ],
      "name": "transferOwnership",
      "outputs": [],
      "stateMutability": "nonpayable",
      "type": "function"
    }
  ],
  "transactionHash": "0x24926ec75842548ab9ae47726a408a448380fdea072515c037b650e10a9c21aa",
  "args": [
    "100",
    "Calliope",
    "Call"
  ],
  "numDeployments": 1,
  "solcInputHash": "3b426c220bc06e2c7318f95f1cb2e921",
  "bytecode": "0x60806040523480156200001157600080fd5b5060405162004e0d38038062004e0d8339818101604052810190620000379190620007ec565b81818160009080519060200190620000519291906200065e565b5080600190805190602001906200006a9291906200065e565b5050506200008d62000081620000af60201b60201c565b620000b760201b60201c565b82600881905550620000a633846200017d60201b60201c565b50505062000d94565b600033905090565b6000600760009054906101000a900473ffffffffffffffffffffffffffffffffffffffff16905081600760006101000a81548173ffffffffffffffffffffffffffffffffffffffff021916908373ffffffffffffffffffffffffffffffffffffffff1602179055508173ffffffffffffffffffffffffffffffffffffffff168173ffffffffffffffffffffffffffffffffffffffff167f8be0079c531659141344cd1fd0a4f28419497f9722a3daafe3b4186f6b6457e060405160405180910390a35050565b6200019f828260405180602001604052806000815250620001a360201b60201c565b5050565b620001b583836200021160201b60201c565b620001ca60008484846200040b60201b60201c565b6200020c576040517f08c379a00000000000000000000000000000000000000000000000000000000081526004016200020390620009b2565b60405180910390fd5b505050565b600073ffffffffffffffffffffffffffffffffffffffff168273ffffffffffffffffffffffffffffffffffffffff16141562000284576040517f08c379a00000000000000000000000000000000000000000000000000000000081526004016200027b90620009f6565b60405180910390fd5b6200029581620005c560201b60201c565b15620002d8576040517f08c379a0000000000000000000000000000000000000000000000000000000008152600401620002cf90620009d4565b60405180910390fd5b620002ec600083836200063160201b60201c565b6001600360008473ffffffffffffffffffffffffffffffffffffffff1673ffffffffffffffffffffffffffffffffffffffff16815260200190815260200160002060008282546200033e919062000aa4565b92505081905550816002600083815260200190815260200160002060006101000a81548173ffffffffffffffffffffffffffffffffffffffff021916908373ffffffffffffffffffffffffffffffffffffffff160217905550808273ffffffffffffffffffffffffffffffffffffffff16600073ffffffffffffffffffffffffffffffffffffffff167fddf252ad1be2c89b69c2b068fc378daa952ba7f163c4a11628f55a4df523b3ef60405160405180910390a462000407600083836200063660201b60201c565b5050565b6000620004398473ffffffffffffffffffffffffffffffffffffffff166200063b60201b62000e811760201c565b15620005b8578373ffffffffffffffffffffffffffffffffffffffff1663150b7a026200046b620000af60201b60201c565b8786866040518563ffffffff1660e01b81526004016200048f94939291906200095e565b602060405180830381600087803b158015620004aa57600080fd5b505af1925050508015620004de57506040513d601f19601f82011682018060405250810190620004db9190620007ba565b60015b62000567573d806000811462000511576040519150601f19603f3d011682016040523d82523d6000602084013e62000516565b606091505b506000815114156200055f576040517f08c379a00000000000000000000000000000000000000000000000000000000081526004016200055690620009b2565b60405180910390fd5b805181602001fd5b63150b7a0260e01b7bffffffffffffffffffffffffffffffffffffffffffffffffffffffff1916817bffffffffffffffffffffffffffffffffffffffffffffffffffffffff191614915050620005bd565b600190505b949350505050565b60008073ffffffffffffffffffffffffffffffffffffffff166002600084815260200190815260200160002060009054906101000a900473ffffffffffffffffffffffffffffffffffffffff1673ffffffffffffffffffffffffffffffffffffffff1614159050919050565b505050565b505050565b6000808273ffffffffffffffffffffffffffffffffffffffff163b119050919050565b8280546200066c9062000ba1565b90600052602060002090601f016020900481019282620006905760008555620006dc565b82601f10620006ab57805160ff1916838001178555620006dc565b82800160010185558215620006dc579182015b82811115620006db578251825591602001919060010190620006be565b5b509050620006eb9190620006ef565b5090565b5b808211156200070a576000816000905550600101620006f0565b5090565b6000620007256200071f8462000a41565b62000a18565b90508281526020810184848401111562000744576200074362000c9f565b5b6200075184828562000b6b565b509392505050565b6000815190506200076a8162000d60565b92915050565b600082601f83011262000788576200078762000c9a565b5b81516200079a8482602086016200070e565b91505092915050565b600081519050620007b48162000d7a565b92915050565b600060208284031215620007d357620007d262000ca9565b5b6000620007e38482850162000759565b91505092915050565b60008060006060848603121562000808576200080762000ca9565b5b60006200081886828701620007a3565b935050602084015167ffffffffffffffff8111156200083c576200083b62000ca4565b5b6200084a8682870162000770565b925050604084015167ffffffffffffffff8111156200086e576200086d62000ca4565b5b6200087c8682870162000770565b9150509250925092565b620008918162000b01565b82525050565b6000620008a48262000a77565b620008b0818562000a82565b9350620008c281856020860162000b6b565b620008cd8162000cae565b840191505092915050565b6000620008e760328362000a93565b9150620008f48262000cbf565b604082019050919050565b60006200090e601c8362000a93565b91506200091b8262000d0e565b602082019050919050565b60006200093560208362000a93565b9150620009428262000d37565b602082019050919050565b620009588162000b61565b82525050565b600060808201905062000975600083018762000886565b62000984602083018662000886565b6200099360408301856200094d565b8181036060830152620009a7818462000897565b905095945050505050565b60006020820190508181036000830152620009cd81620008d8565b9050919050565b60006020820190508181036000830152620009ef81620008ff565b9050919050565b6000602082019050818103600083015262000a118162000926565b9050919050565b600062000a2462000a37565b905062000a32828262000bd7565b919050565b6000604051905090565b600067ffffffffffffffff82111562000a5f5762000a5e62000c6b565b5b62000a6a8262000cae565b9050602081019050919050565b600081519050919050565b600082825260208201905092915050565b600082825260208201905092915050565b600062000ab18262000b61565b915062000abe8362000b61565b9250827fffffffffffffffffffffffffffffffffffffffffffffffffffffffffffffffff0382111562000af65762000af562000c0d565b5b828201905092915050565b600062000b0e8262000b41565b9050919050565b60007fffffffff0000000000000000000000000000000000000000000000000000000082169050919050565b600073ffffffffffffffffffffffffffffffffffffffff82169050919050565b6000819050919050565b60005b8381101562000b8b57808201518184015260208101905062000b6e565b8381111562000b9b576000848401525b50505050565b6000600282049050600182168062000bba57607f821691505b6020821081141562000bd15762000bd062000c3c565b5b50919050565b62000be28262000cae565b810181811067ffffffffffffffff8211171562000c045762000c0362000c6b565b5b80604052505050565b7f4e487b7100000000000000000000000000000000000000000000000000000000600052601160045260246000fd5b7f4e487b7100000000000000000000000000000000000000000000000000000000600052602260045260246000fd5b7f4e487b7100000000000000000000000000000000000000000000000000000000600052604160045260246000fd5b600080fd5b600080fd5b600080fd5b600080fd5b6000601f19601f8301169050919050565b7f4552433732313a207472616e7366657220746f206e6f6e20455243373231526560008201527f63656976657220696d706c656d656e7465720000000000000000000000000000602082015250565b7f4552433732313a20746f6b656e20616c7265616479206d696e74656400000000600082015250565b7f4552433732313a206d696e7420746f20746865207a65726f2061646472657373600082015250565b62000d6b8162000b15565b811462000d7757600080fd5b50565b62000d858162000b61565b811462000d9157600080fd5b50565b6140698062000da46000396000f3fe60806040523480156200001157600080fd5b5060043610620001485760003560e01c80637dcb0e5f11620000bd578063b88d4fde116200007b578063b88d4fde1462000391578063c87b56dd14620003b1578063e467996714620003e7578063e985e9c51462000407578063f2fde38b146200043d5762000148565b80637dcb0e5f14620002d55780638b9ca885146200030b5780638da5cb5b146200032d57806395d89b41146200034f578063a22cb46514620003715762000148565b806342842e0e116200010b57806342842e0e146200021b5780636352211e146200023b57806370a082311462000271578063715018a614620002a757806378ce903514620002b35762000148565b806301ffc9a7146200014d57806306fdde031462000183578063081812fc14620001a5578063095ea7b314620001db57806323b872dd14620001fb575b600080fd5b6200016b600480360381019062000165919062001d6c565b6200045d565b6040516200017a919062002134565b60405180910390f35b6200018d62000543565b6040516200019c919062002151565b60405180910390f35b620001c36004803603810190620001bd919062001dd0565b620005dd565b604051620001d29190620020c3565b60405180910390f35b620001f96004803603810190620001f3919062001d25565b62000625565b005b62000219600480360381019062000213919062001bf1565b6200074e565b005b62000239600480360381019062000233919062001bf1565b620007b7565b005b62000259600480360381019062000253919062001dd0565b620007d9565b604051620002689190620020c3565b60405180910390f35b6200028f600480360381019062000289919062001b78565b6200088e565b6040516200029e9190620022eb565b60405180910390f35b620002b162000949565b005b620002bd62000961565b604051620002cc919062002151565b60405180910390f35b620002f36004803603810190620002ed919062001dd0565b6200099a565b60405162000302919062002151565b60405180910390f35b62000315620009d9565b604051620003249190620020c3565b60405180910390f35b6200033762000a03565b604051620003469190620020c3565b60405180910390f35b6200035962000a2d565b60405162000368919062002151565b60405180910390f35b6200038f600480360381019062000389919062001cde565b62000ac7565b005b620003af6004803603810190620003a9919062001c4d565b62000ae1565b005b620003cf6004803603810190620003c9919062001dd0565b62000b4c565b604051620003de919062002151565b60405180910390f35b620004056004803603810190620003ff919062001b78565b62000c73565b005b6200042560048036038101906200041f919062001baa565b62000d62565b60405162000434919062002134565b60405180910390f35b6200045b600480360381019062000455919062001b78565b62000df6565b005b60007f80ac58cd000000000000000000000000000000000000000000000000000000007bffffffffffffffffffffffffffffffffffffffffffffffffffffffff1916827bffffffffffffffffffffffffffffffffffffffffffffffffffffffff191614806200052957507f5b5e139f000000000000000000000000000000000000000000000000000000007bffffffffffffffffffffffffffffffffffffffffffffffffffffffff1916827bffffffffffffffffffffffffffffffffffffffffffffffffffffffff1916145b806200053c57506200053b8262000ea4565b5b9050919050565b606060008054620005549062002535565b80601f0160208091040260200160405190810160405280929190818152602001828054620005829062002535565b8015620005d35780601f10620005a757610100808354040283529160200191620005d3565b820191906000526020600020905b815481529060010190602001808311620005b557829003601f168201915b5050505050905090565b6000620005ea8262000f0e565b6004600083815260200190815260200160002060009054906101000a900473ffffffffffffffffffffffffffffffffffffffff169050919050565b60006200063282620007d9565b90508073ffffffffffffffffffffffffffffffffffffffff168373ffffffffffffffffffffffffffffffffffffffff161415620006a6576040517f08c379a00000000000000000000000000000000000000000000000000000000081526004016200069d90620022a7565b60405180910390fd5b8073ffffffffffffffffffffffffffffffffffffffff16620006c762000f5e565b73ffffffffffffffffffffffffffffffffffffffff161480620006fb5750620006fa81620006f462000f5e565b62000d62565b5b6200073d576040517f08c379a0000000000000000000000000000000000000000000000000000000008152600401620007349062002241565b60405180910390fd5b62000749838362000f66565b505050565b620007636200075c62000f5e565b8262001021565b620007a5576040517f08c379a00000000000000000000000000000000000000000000000000000000081526004016200079c90620022c9565b60405180910390fd5b620007b2838383620010be565b505050565b620007d48383836040518060200160405280600081525062000ae1565b505050565b6000806002600084815260200190815260200160002060009054906101000a900473ffffffffffffffffffffffffffffffffffffffff169050600073ffffffffffffffffffffffffffffffffffffffff168173ffffffffffffffffffffffffffffffffffffffff16141562000885576040517f08c379a00000000000000000000000000000000000000000000000000000000081526004016200087c9062002285565b60405180910390fd5b80915050919050565b60008073ffffffffffffffffffffffffffffffffffffffff168273ffffffffffffffffffffffffffffffffffffffff16141562000902576040517f08c379a0000000000000000000000000000000000000000000000000000000008152600401620008f9906200221f565b60405180910390fd5b600360008373ffffffffffffffffffffffffffffffffffffffff1673ffffffffffffffffffffffffffffffffffffffff168152602001908152602001600020549050919050565b6200095362001337565b6200095f6000620013bc565b565b6040518060400160405280600a81526020017f2e2f6e66742e6a736f6e0000000000000000000000000000000000000000000081525081565b60606040518060400160405280600a81526020017f2e2f6e66742e6a736f6e000000000000000000000000000000000000000000008152509050919050565b6000600960019054906101000a900473ffffffffffffffffffffffffffffffffffffffff16905090565b6000600760009054906101000a900473ffffffffffffffffffffffffffffffffffffffff16905090565b60606001805462000a3e9062002535565b80601f016020809104026020016040519081016040528092919081815260200182805462000a6c9062002535565b801562000abd5780601f1062000a915761010080835404028352916020019162000abd565b820191906000526020600020905b81548152906001019060200180831162000a9f57829003601f168201915b5050505050905090565b62000add62000ad562000f5e565b838362001482565b5050565b62000af662000aef62000f5e565b8362001021565b62000b38576040517f08c379a000000000000000000000000000000000000000000000000000000000815260040162000b2f90620022c9565b60405180910390fd5b62000b4684848484620015f4565b50505050565b606062000b598262000f0e565b600060066000848152602001908152602001600020805462000b7b9062002535565b80601f016020809104026020016040519081016040528092919081815260200182805462000ba99062002535565b801562000bfa5780601f1062000bce5761010080835404028352916020019162000bfa565b820191906000526020600020905b81548152906001019060200180831162000bdc57829003601f168201915b50505050509050600062000c0d62001657565b905060008151141562000c2557819250505062000c6e565b60008251111562000c5e57808260405160200162000c459291906200209b565b6040516020818303038152906040529250505062000c6e565b62000c69846200166e565b925050505b919050565b62000c7d62001337565b600960009054906101000a900460ff161562000cc5576040517f2da2f89100000000000000000000000000000000000000000000000000000000815260040160405180910390fd5b60003060405162000cd69062001a79565b62000ce29190620020c3565b604051809103906000f08015801562000cff573d6000803e3d6000fd5b50905080600960016101000a81548173ffffffffffffffffffffffffffffffffffffffff021916908373ffffffffffffffffffffffffffffffffffffffff1602179055506001600960006101000a81548160ff0219169083151502179055505050565b6000600560008473ffffffffffffffffffffffffffffffffffffffff1673ffffffffffffffffffffffffffffffffffffffff16815260200190815260200160002060008373ffffffffffffffffffffffffffffffffffffffff1673ffffffffffffffffffffffffffffffffffffffff16815260200190815260200160002060009054906101000a900460ff16905092915050565b62000e0062001337565b600073ffffffffffffffffffffffffffffffffffffffff168173ffffffffffffffffffffffffffffffffffffffff16141562000e73576040517f08c379a000000000000000000000000000000000000000000000000000000000815260040162000e6a9062002197565b60405180910390fd5b62000e7e81620013bc565b50565b6000808273ffffffffffffffffffffffffffffffffffffffff163b119050919050565b60007f01ffc9a7000000000000000000000000000000000000000000000000000000007bffffffffffffffffffffffffffffffffffffffffffffffffffffffff1916827bffffffffffffffffffffffffffffffffffffffffffffffffffffffff1916149050919050565b62000f1981620016e0565b62000f5b576040517f08c379a000000000000000000000000000000000000000000000000000000000815260040162000f529062002285565b60405180910390fd5b50565b600033905090565b816004600083815260200190815260200160002060006101000a81548173ffffffffffffffffffffffffffffffffffffffff021916908373ffffffffffffffffffffffffffffffffffffffff160217905550808273ffffffffffffffffffffffffffffffffffffffff1662000fdb83620007d9565b73ffffffffffffffffffffffffffffffffffffffff167f8c5be1e5ebec7d5bd14f71427d1e84f3dd0314c0f7b2291e5b200ac8c7c3b92560405160405180910390a45050565b6000806200102f83620007d9565b90508073ffffffffffffffffffffffffffffffffffffffff168473ffffffffffffffffffffffffffffffffffffffff16148062001074575062001073818562000d62565b5b80620010b557508373ffffffffffffffffffffffffffffffffffffffff166200109d84620005dd565b73ffffffffffffffffffffffffffffffffffffffff16145b91505092915050565b8273ffffffffffffffffffffffffffffffffffffffff16620010e082620007d9565b73ffffffffffffffffffffffffffffffffffffffff161462001139576040517f08c379a00000000000000000000000000000000000000000000000000000000081526004016200113090620021b9565b60405180910390fd5b600073ffffffffffffffffffffffffffffffffffffffff168273ffffffffffffffffffffffffffffffffffffffff161415620011ac576040517f08c379a0000000000000000000000000000000000000000000000000000000008152600401620011a390620021db565b60405180910390fd5b620011b98383836200174c565b620011c660008262000f66565b6001600360008573ffffffffffffffffffffffffffffffffffffffff1673ffffffffffffffffffffffffffffffffffffffff16815260200190815260200160002060008282546200121891906200243f565b925050819055506001600360008473ffffffffffffffffffffffffffffffffffffffff1673ffffffffffffffffffffffffffffffffffffffff1681526020019081526020016000206000828254620012719190620023aa565b92505081905550816002600083815260200190815260200160002060006101000a81548173ffffffffffffffffffffffffffffffffffffffff021916908373ffffffffffffffffffffffffffffffffffffffff160217905550808273ffffffffffffffffffffffffffffffffffffffff168473ffffffffffffffffffffffffffffffffffffffff167fddf252ad1be2c89b69c2b068fc378daa952ba7f163c4a11628f55a4df523b3ef60405160405180910390a46200133283838362001751565b505050565b6200134162000f5e565b73ffffffffffffffffffffffffffffffffffffffff166200136162000a03565b73ffffffffffffffffffffffffffffffffffffffff1614620013ba576040517f08c379a0000000000000000000000000000000000000000000000000000000008152600401620013b19062002263565b60405180910390fd5b565b6000600760009054906101000a900473ffffffffffffffffffffffffffffffffffffffff16905081600760006101000a81548173ffffffffffffffffffffffffffffffffffffffff021916908373ffffffffffffffffffffffffffffffffffffffff1602179055508173ffffffffffffffffffffffffffffffffffffffff168173ffffffffffffffffffffffffffffffffffffffff167f8be0079c531659141344cd1fd0a4f28419497f9722a3daafe3b4186f6b6457e060405160405180910390a35050565b8173ffffffffffffffffffffffffffffffffffffffff168373ffffffffffffffffffffffffffffffffffffffff161415620014f4576040517f08c379a0000000000000000000000000000000000000000000000000000000008152600401620014eb90620021fd565b60405180910390fd5b80600560008573ffffffffffffffffffffffffffffffffffffffff1673ffffffffffffffffffffffffffffffffffffffff16815260200190815260200160002060008473ffffffffffffffffffffffffffffffffffffffff1673ffffffffffffffffffffffffffffffffffffffff16815260200190815260200160002060006101000a81548160ff0219169083151502179055508173ffffffffffffffffffffffffffffffffffffffff168373ffffffffffffffffffffffffffffffffffffffff167f17307eab39ab6107e8899845ad3d59bd9653f200f220920489ca2b5937696c3183604051620015e7919062002134565b60405180910390a3505050565b62001601848484620010be565b6200160f8484848462001756565b62001651576040517f08c379a0000000000000000000000000000000000000000000000000000000008152600401620016489062002175565b60405180910390fd5b50505050565b606060405180602001604052806000815250905090565b60606200167b8262000f0e565b60006200168762001657565b90506000815111620016a95760405180602001604052806000815250620016d8565b80620016b584620018ff565b604051602001620016c89291906200209b565b6040516020818303038152906040525b915050919050565b60008073ffffffffffffffffffffffffffffffffffffffff166002600084815260200190815260200160002060009054906101000a900473ffffffffffffffffffffffffffffffffffffffff1673ffffffffffffffffffffffffffffffffffffffff1614159050919050565b505050565b505050565b6000620017798473ffffffffffffffffffffffffffffffffffffffff1662000e81565b15620018f2578373ffffffffffffffffffffffffffffffffffffffff1663150b7a02620017a562000f5e565b8786866040518563ffffffff1660e01b8152600401620017c99493929190620020e0565b602060405180830381600087803b158015620017e457600080fd5b505af19250505080156200181857506040513d601f19601f8201168201806040525081019062001815919062001d9e565b60015b620018a1573d80600081146200184b576040519150601f19603f3d011682016040523d82523d6000602084013e62001850565b606091505b5060008151141562001899576040517f08c379a0000000000000000000000000000000000000000000000000000000008152600401620018909062002175565b60405180910390fd5b805181602001fd5b63150b7a0260e01b7bffffffffffffffffffffffffffffffffffffffffffffffffffffffff1916817bffffffffffffffffffffffffffffffffffffffffffffffffffffffff191614915050620018f7565b600190505b949350505050565b6060600082141562001949576040518060400160405280600181526020017f3000000000000000000000000000000000000000000000000000000000000000815250905062001a74565b600082905060005b60008214620019815780806200196790620025a1565b915050600a8262001979919062002407565b915062001951565b60008167ffffffffffffffff811115620019a0576200199f620026e3565b5b6040519080825280601f01601f191660200182016040528015620019d35781602001600182028036833780820191505090505b5090505b6000851462001a6d57600182620019ef91906200243f565b9150600a8562001a009190620025ef565b603062001a0e9190620023aa565b60f81b81838151811062001a275762001a26620026b4565b5b60200101907effffffffffffffffffffffffffffffffffffffffffffffffffffffffffffff1916908160001a905350600a8562001a65919062002407565b9450620019d7565b8093505050505b919050565b6115a18062002a9383390190565b600062001a9e62001a988462002331565b62002308565b90508281526020810184848401111562001abd5762001abc62002717565b5b62001aca848285620024f0565b509392505050565b60008135905062001ae38162002a2a565b92915050565b60008135905062001afa8162002a44565b92915050565b60008135905062001b118162002a5e565b92915050565b60008151905062001b288162002a5e565b92915050565b600082601f83011262001b465762001b4562002712565b5b813562001b5884826020860162001a87565b91505092915050565b60008135905062001b728162002a78565b92915050565b60006020828403121562001b915762001b9062002721565b5b600062001ba18482850162001ad2565b91505092915050565b6000806040838503121562001bc45762001bc362002721565b5b600062001bd48582860162001ad2565b925050602062001be78582860162001ad2565b9150509250929050565b60008060006060848603121562001c0d5762001c0c62002721565b5b600062001c1d8682870162001ad2565b935050602062001c308682870162001ad2565b925050604062001c438682870162001b61565b9150509250925092565b6000806000806080858703121562001c6a5762001c6962002721565b5b600062001c7a8782880162001ad2565b945050602062001c8d8782880162001ad2565b935050604062001ca08782880162001b61565b925050606085013567ffffffffffffffff81111562001cc45762001cc36200271c565b5b62001cd28782880162001b2e565b91505092959194509250565b6000806040838503121562001cf85762001cf762002721565b5b600062001d088582860162001ad2565b925050602062001d1b8582860162001ae9565b9150509250929050565b6000806040838503121562001d3f5762001d3e62002721565b5b600062001d4f8582860162001ad2565b925050602062001d628582860162001b61565b9150509250929050565b60006020828403121562001d855762001d8462002721565b5b600062001d958482850162001b00565b91505092915050565b60006020828403121562001db75762001db662002721565b5b600062001dc78482850162001b17565b91505092915050565b60006020828403121562001de95762001de862002721565b5b600062001df98482850162001b61565b91505092915050565b62001e0d816200247a565b82525050565b62001e1e816200248e565b82525050565b600062001e318262002367565b62001e3d81856200237d565b935062001e4f818560208601620024ff565b62001e5a8162002726565b840191505092915050565b600062001e728262002372565b62001e7e81856200238e565b935062001e90818560208601620024ff565b62001e9b8162002726565b840191505092915050565b600062001eb38262002372565b62001ebf81856200239f565b935062001ed1818560208601620024ff565b80840191505092915050565b600062001eec6032836200238e565b915062001ef98262002737565b604082019050919050565b600062001f136026836200238e565b915062001f208262002786565b604082019050919050565b600062001f3a6025836200238e565b915062001f4782620027d5565b604082019050919050565b600062001f616024836200238e565b915062001f6e8262002824565b604082019050919050565b600062001f886019836200238e565b915062001f958262002873565b602082019050919050565b600062001faf6029836200238e565b915062001fbc826200289c565b604082019050919050565b600062001fd6603e836200238e565b915062001fe382620028eb565b604082019050919050565b600062001ffd6020836200238e565b91506200200a826200293a565b602082019050919050565b6000620020246018836200238e565b9150620020318262002963565b602082019050919050565b60006200204b6021836200238e565b915062002058826200298c565b604082019050919050565b600062002072602e836200238e565b91506200207f82620029db565b604082019050919050565b6200209581620024e6565b82525050565b6000620020a9828562001ea6565b9150620020b7828462001ea6565b91508190509392505050565b6000602082019050620020da600083018462001e02565b92915050565b6000608082019050620020f7600083018762001e02565b62002106602083018662001e02565b6200211560408301856200208a565b818103606083015262002129818462001e24565b905095945050505050565b60006020820190506200214b600083018462001e13565b92915050565b600060208201905081810360008301526200216d818462001e65565b905092915050565b60006020820190508181036000830152620021908162001edd565b9050919050565b60006020820190508181036000830152620021b28162001f04565b9050919050565b60006020820190508181036000830152620021d48162001f2b565b9050919050565b60006020820190508181036000830152620021f68162001f52565b9050919050565b60006020820190508181036000830152620022188162001f79565b9050919050565b600060208201905081810360008301526200223a8162001fa0565b9050919050565b600060208201905081810360008301526200225c8162001fc7565b9050919050565b600060208201905081810360008301526200227e8162001fee565b9050919050565b60006020820190508181036000830152620022a08162002015565b9050919050565b60006020820190508181036000830152620022c2816200203c565b9050919050565b60006020820190508181036000830152620022e48162002063565b9050919050565b60006020820190506200230260008301846200208a565b92915050565b60006200231462002327565b90506200232282826200256b565b919050565b6000604051905090565b600067ffffffffffffffff8211156200234f576200234e620026e3565b5b6200235a8262002726565b9050602081019050919050565b600081519050919050565b600081519050919050565b600082825260208201905092915050565b600082825260208201905092915050565b600081905092915050565b6000620023b782620024e6565b9150620023c483620024e6565b9250827fffffffffffffffffffffffffffffffffffffffffffffffffffffffffffffffff03821115620023fc57620023fb62002627565b5b828201905092915050565b60006200241482620024e6565b91506200242183620024e6565b92508262002434576200243362002656565b5b828204905092915050565b60006200244c82620024e6565b91506200245983620024e6565b9250828210156200246f576200246e62002627565b5b828203905092915050565b60006200248782620024c6565b9050919050565b60008115159050919050565b60007fffffffff0000000000000000000000000000000000000000000000000000000082169050919050565b600073ffffffffffffffffffffffffffffffffffffffff82169050919050565b6000819050919050565b82818337600083830152505050565b60005b838110156200251f57808201518184015260208101905062002502565b838111156200252f576000848401525b50505050565b600060028204905060018216806200254e57607f821691505b6020821081141562002565576200256462002685565b5b50919050565b620025768262002726565b810181811067ffffffffffffffff82111715620025985762002597620026e3565b5b80604052505050565b6000620025ae82620024e6565b91507fffffffffffffffffffffffffffffffffffffffffffffffffffffffffffffffff821415620025e457620025e362002627565b5b600182019050919050565b6000620025fc82620024e6565b91506200260983620024e6565b9250826200261c576200261b62002656565b5b828206905092915050565b7f4e487b7100000000000000000000000000000000000000000000000000000000600052601160045260246000fd5b7f4e487b7100000000000000000000000000000000000000000000000000000000600052601260045260246000fd5b7f4e487b7100000000000000000000000000000000000000000000000000000000600052602260045260246000fd5b7f4e487b7100000000000000000000000000000000000000000000000000000000600052603260045260246000fd5b7f4e487b7100000000000000000000000000000000000000000000000000000000600052604160045260246000fd5b600080fd5b600080fd5b600080fd5b600080fd5b6000601f19601f8301169050919050565b7f4552433732313a207472616e7366657220746f206e6f6e20455243373231526560008201527f63656976657220696d706c656d656e7465720000000000000000000000000000602082015250565b7f4f776e61626c653a206e6577206f776e657220697320746865207a65726f206160008201527f6464726573730000000000000000000000000000000000000000000000000000602082015250565b7f4552433732313a207472616e736665722066726f6d20696e636f72726563742060008201527f6f776e6572000000000000000000000000000000000000000000000000000000602082015250565b7f4552433732313a207472616e7366657220746f20746865207a65726f2061646460008201527f7265737300000000000000000000000000000000000000000000000000000000602082015250565b7f4552433732313a20617070726f766520746f2063616c6c657200000000000000600082015250565b7f4552433732313a2061646472657373207a65726f206973206e6f74206120766160008201527f6c6964206f776e65720000000000000000000000000000000000000000000000602082015250565b7f4552433732313a20617070726f76652063616c6c6572206973206e6f7420746f60008201527f6b656e206f776e6572206e6f7220617070726f76656420666f7220616c6c0000602082015250565b7f4f776e61626c653a2063616c6c6572206973206e6f7420746865206f776e6572600082015250565b7f4552433732313a20696e76616c696420746f6b656e2049440000000000000000600082015250565b7f4552433732313a20617070726f76616c20746f2063757272656e74206f776e6560008201527f7200000000000000000000000000000000000000000000000000000000000000602082015250565b7f4552433732313a2063616c6c6572206973206e6f7420746f6b656e206f776e6560008201527f72206e6f7220617070726f766564000000000000000000000000000000000000602082015250565b62002a35816200247a565b811462002a4157600080fd5b50565b62002a4f816200248e565b811462002a5b57600080fd5b50565b62002a69816200249a565b811462002a7557600080fd5b50565b62002a8381620024e6565b811462002a8f57600080fd5b5056fe60a06040523480156200001157600080fd5b50604051620015a1380380620015a18339818101604052810190620000379190620001c0565b620000576200004b620000dd60201b60201c565b620000e560201b60201c565b8073ffffffffffffffffffffffffffffffffffffffff1660808173ffffffffffffffffffffffffffffffffffffffff1660601b8152505033600160006101000a81548173ffffffffffffffffffffffffffffffffffffffff021916908373ffffffffffffffffffffffffffffffffffffffff160217905550426007819055505062000245565b600033905090565b60008060009054906101000a900473ffffffffffffffffffffffffffffffffffffffff169050816000806101000a81548173ffffffffffffffffffffffffffffffffffffffff021916908373ffffffffffffffffffffffffffffffffffffffff1602179055508173ffffffffffffffffffffffffffffffffffffffff168173ffffffffffffffffffffffffffffffffffffffff167f8be0079c531659141344cd1fd0a4f28419497f9722a3daafe3b4186f6b6457e060405160405180910390a35050565b600081519050620001ba816200022b565b92915050565b600060208284031215620001d957620001d862000226565b5b6000620001e984828501620001a9565b91505092915050565b6000620001ff8262000206565b9050919050565b600073ffffffffffffffffffffffffffffffffffffffff82169050919050565b600080fd5b6200023681620001f2565b81146200024257600080fd5b50565b60805160601c6113366200026b60003960008181610522015261061f01526113366000f3fe608060405234801561001057600080fd5b50600436106100885760003560e01c80638da5cb5b1161005b5780638da5cb5b146100ee578063bc3ad1451461010c578063d45eb1b214610128578063f2fde38b1461014457610088565b8063378252f21461008d5780634585e33b146100975780636e04ff0d146100b3578063715018a6146100e4575b600080fd5b610095610160565b005b6100b160048036038101906100ac9190610af5565b6101cc565b005b6100cd60048036038101906100c89190610b42565b61024f565b6040516100db929190610dcc565b60405180910390f35b6100ec61026b565b005b6100f661027f565b6040516101039190610d1a565b60405180910390f35b61012660048036038101906101219190610bb8565b6102a8565b005b610142600480360381019061013d9190610bf8565b6105d5565b005b61015e60048036038101906101599190610a9b565b610756565b005b6101686107da565b6001600060146101000a81548160ff0219169083600181111561018e5761018d611187565b5b02179055507fac4a907ec29adcc56774b757ecb1e1b4d597374fc9386107d05e2670259df7d3426040516101c29190610e3c565b60405180910390a1565b60006101e66040518060200160405280600081525061024f565b50905080610220576040517f865676e300000000000000000000000000000000000000000000000000000000815260040160405180910390fd5b6103e86103e76004546102339190610f61565b61023d9190610f30565b60058190555042600781905550505050565b60006060603c600754426102639190610fbb565b119150915091565b6102736107da565b61027d6000610858565b565b60008060009054906101000a900473ffffffffffffffffffffffffffffffffffffffff16905090565b60026000600281106102bd576102bc6111b6565b5b01548210806102e1575060026001600281106102dc576102db6111b6565b5b015482115b15610318576040517f215f899f00000000000000000000000000000000000000000000000000000000815260040160405180910390fd5b6005548173ffffffffffffffffffffffffffffffffffffffff166370a08231336040518263ffffffff1660e01b81526004016103549190610d1a565b60206040518083038186803b15801561036c57600080fd5b505afa158015610380573d6000803e3d6000fd5b505050506040513d601f19601f820116820180604052508101906103a49190610b8b565b10156103dc576040517fad3a8b9e00000000000000000000000000000000000000000000000000000000815260040160405180910390fd5b8073ffffffffffffffffffffffffffffffffffffffff1663095ea7b3306005546040518363ffffffff1660e01b8152600401610419929190610da3565b602060405180830381600087803b15801561043357600080fd5b505af1158015610447573d6000803e3d6000fd5b505050506040513d601f19601f8201168201806040525081019061046b9190610ac8565b508073ffffffffffffffffffffffffffffffffffffffff166323b872dd33600160009054906101000a900473ffffffffffffffffffffffffffffffffffffffff166005546040518463ffffffff1660e01b81526004016104cd93929190610d6c565b602060405180830381600087803b1580156104e757600080fd5b505af11580156104fb573d6000803e3d6000fd5b505050506040513d601f19601f8201168201806040525081019061051f9190610ac8565b507f000000000000000000000000000000000000000000000000000000000000000073ffffffffffffffffffffffffffffffffffffffff166342842e0e600160009054906101000a900473ffffffffffffffffffffffffffffffffffffffff1633856040518463ffffffff1660e01b815260040161059f93929190610d35565b600060405180830381600087803b1580156105b957600080fd5b505af11580156105cd573d6000803e3d6000fd5b505050505050565b6105dd6107da565b6040518060400160405280858152602001848152506002906002610602929190610924565b5060008490505b6001846106169190610eda565b8110156106bd577f000000000000000000000000000000000000000000000000000000000000000073ffffffffffffffffffffffffffffffffffffffff1663095ea7b330836040518363ffffffff1660e01b8152600401610678929190610da3565b600060405180830381600087803b15801561069257600080fd5b505af11580156106a6573d6000803e3d6000fd5b5050505080806106b5906110e0565b915050610609565b508160048190555081600581905550603c816106d99190610f61565b426106e49190610eda565b60068190555060008060146101000a81548160ff0219169083600181111561070f5761070e611187565b5b021790555082846005547fb1875be868269f716e67ea29c2a7f4561cce73911c07e952c0bec2c5e37bd61c426040516107489190610e3c565b60405180910390a450505050565b61075e6107da565b600073ffffffffffffffffffffffffffffffffffffffff168173ffffffffffffffffffffffffffffffffffffffff1614156107ce576040517f08c379a00000000000000000000000000000000000000000000000000000000081526004016107c590610dfc565b60405180910390fd5b6107d781610858565b50565b6107e261091c565b73ffffffffffffffffffffffffffffffffffffffff1661080061027f565b73ffffffffffffffffffffffffffffffffffffffff1614610856576040517f08c379a000000000000000000000000000000000000000000000000000000000815260040161084d90610e1c565b60405180910390fd5b565b60008060009054906101000a900473ffffffffffffffffffffffffffffffffffffffff169050816000806101000a81548173ffffffffffffffffffffffffffffffffffffffff021916908373ffffffffffffffffffffffffffffffffffffffff1602179055508173ffffffffffffffffffffffffffffffffffffffff168173ffffffffffffffffffffffffffffffffffffffff167f8be0079c531659141344cd1fd0a4f28419497f9722a3daafe3b4186f6b6457e060405160405180910390a35050565b600033905090565b8260028101928215610953579160200282015b82811115610952578251825591602001919060010190610937565b5b5090506109609190610964565b5090565b5b8082111561097d576000816000905550600101610965565b5090565b600061099461098f84610e7c565b610e57565b9050828152602081018484840111156109b0576109af611223565b5b6109bb84828561106d565b509392505050565b6000813590506109d2816112bb565b92915050565b6000815190506109e7816112d2565b92915050565b60008083601f840112610a0357610a02611219565b5b8235905067ffffffffffffffff811115610a2057610a1f611214565b5b602083019150836001820283011115610a3c57610a3b61121e565b5b9250929050565b600082601f830112610a5857610a57611219565b5b8135610a68848260208601610981565b91505092915050565b600081359050610a80816112e9565b92915050565b600081519050610a95816112e9565b92915050565b600060208284031215610ab157610ab061122d565b5b6000610abf848285016109c3565b91505092915050565b600060208284031215610ade57610add61122d565b5b6000610aec848285016109d8565b91505092915050565b60008060208385031215610b0c57610b0b61122d565b5b600083013567ffffffffffffffff811115610b2a57610b29611228565b5b610b36858286016109ed565b92509250509250929050565b600060208284031215610b5857610b5761122d565b5b600082013567ffffffffffffffff811115610b7657610b75611228565b5b610b8284828501610a43565b91505092915050565b600060208284031215610ba157610ba061122d565b5b6000610baf84828501610a86565b91505092915050565b60008060408385031215610bcf57610bce61122d565b5b6000610bdd85828601610a71565b9250506020610bee858286016109c3565b9150509250929050565b60008060008060808587031215610c1257610c1161122d565b5b6000610c2087828801610a71565b9450506020610c3187828801610a71565b9350506040610c4287828801610a71565b9250506060610c5387828801610a71565b91505092959194509250565b610c6881611037565b82525050565b610c7781610fef565b82525050565b610c8681611001565b82525050565b6000610c9782610ead565b610ca18185610eb8565b9350610cb181856020860161107c565b610cba81611232565b840191505092915050565b6000610cd2602683610ec9565b9150610cdd82611243565b604082019050919050565b6000610cf5602083610ec9565b9150610d0082611292565b602082019050919050565b610d148161102d565b82525050565b6000602082019050610d2f6000830184610c6e565b92915050565b6000606082019050610d4a6000830186610c5f565b610d576020830185610c6e565b610d646040830184610d0b565b949350505050565b6000606082019050610d816000830186610c6e565b610d8e6020830185610c5f565b610d9b6040830184610d0b565b949350505050565b6000604082019050610db86000830185610c6e565b610dc56020830184610d0b565b9392505050565b6000604082019050610de16000830185610c7d565b8181036020830152610df38184610c8c565b90509392505050565b60006020820190508181036000830152610e1581610cc5565b9050919050565b60006020820190508181036000830152610e3581610ce8565b9050919050565b6000602082019050610e516000830184610d0b565b92915050565b6000610e61610e72565b9050610e6d82826110af565b919050565b6000604051905090565b600067ffffffffffffffff821115610e9757610e966111e5565b5b610ea082611232565b9050602081019050919050565b600081519050919050565b600082825260208201905092915050565b600082825260208201905092915050565b6000610ee58261102d565b9150610ef08361102d565b9250827fffffffffffffffffffffffffffffffffffffffffffffffffffffffffffffffff03821115610f2557610f24611129565b5b828201905092915050565b6000610f3b8261102d565b9150610f468361102d565b925082610f5657610f55611158565b5b828204905092915050565b6000610f6c8261102d565b9150610f778361102d565b9250817fffffffffffffffffffffffffffffffffffffffffffffffffffffffffffffffff0483118215151615610fb057610faf611129565b5b828202905092915050565b6000610fc68261102d565b9150610fd18361102d565b925082821015610fe457610fe3611129565b5b828203905092915050565b6000610ffa8261100d565b9050919050565b60008115159050919050565b600073ffffffffffffffffffffffffffffffffffffffff82169050919050565b6000819050919050565b600061104282611049565b9050919050565b60006110548261105b565b9050919050565b60006110668261100d565b9050919050565b82818337600083830152505050565b60005b8381101561109a57808201518184015260208101905061107f565b838111156110a9576000848401525b50505050565b6110b882611232565b810181811067ffffffffffffffff821117156110d7576110d66111e5565b5b80604052505050565b60006110eb8261102d565b91507fffffffffffffffffffffffffffffffffffffffffffffffffffffffffffffffff82141561111e5761111d611129565b5b600182019050919050565b7f4e487b7100000000000000000000000000000000000000000000000000000000600052601160045260246000fd5b7f4e487b7100000000000000000000000000000000000000000000000000000000600052601260045260246000fd5b7f4e487b7100000000000000000000000000000000000000000000000000000000600052602160045260246000fd5b7f4e487b7100000000000000000000000000000000000000000000000000000000600052603260045260246000fd5b7f4e487b7100000000000000000000000000000000000000000000000000000000600052604160045260246000fd5b600080fd5b600080fd5b600080fd5b600080fd5b600080fd5b600080fd5b6000601f19601f8301169050919050565b7f4f776e61626c653a206e6577206f776e657220697320746865207a65726f206160008201527f6464726573730000000000000000000000000000000000000000000000000000602082015250565b7f4f776e61626c653a2063616c6c6572206973206e6f7420746865206f776e6572600082015250565b6112c481610fef565b81146112cf57600080fd5b50565b6112db81611001565b81146112e657600080fd5b50565b6112f28161102d565b81146112fd57600080fd5b5056fea26469706673582212204ac74f3631e95c02534ef79b8c008aee1fd248db77d8bad4551007677897a62264736f6c63430008070033a264697066735822122029398f6966604b059c53dae735d11da8ed7db6fa28045d4a4c9b2e380972b91664736f6c63430008070033",
  "devdoc": {
    "kind": "dev",
    "methods": {
      "approve(address,uint256)": {
        "details": "See {IERC721-approve}."
      },
      "balanceOf(address)": {
        "details": "See {IERC721-balanceOf}."
      },
      "getApproved(uint256)": {
        "details": "See {IERC721-getApproved}."
      },
      "isApprovedForAll(address,address)": {
        "details": "See {IERC721-isApprovedForAll}."
      },
      "name()": {
        "details": "See {IERC721Metadata-name}."
      },
      "owner()": {
        "details": "Returns the address of the current owner."
      },
      "ownerOf(uint256)": {
        "details": "See {IERC721-ownerOf}."
      },
      "renounceOwnership()": {
        "details": "Leaves the contract without owner. It will not be possible to call `onlyOwner` functions anymore. Can only be called by the current owner. NOTE: Renouncing ownership will leave the contract without an owner, thereby removing any functionality that is only available to the owner."
      },
      "safeTransferFrom(address,address,uint256)": {
        "details": "See {IERC721-safeTransferFrom}."
      },
      "safeTransferFrom(address,address,uint256,bytes)": {
        "details": "See {IERC721-safeTransferFrom}."
      },
      "setApprovalForAll(address,bool)": {
        "details": "See {IERC721-setApprovalForAll}."
      },
      "supportsInterface(bytes4)": {
        "details": "See {IERC165-supportsInterface}."
      },
      "symbol()": {
        "details": "See {IERC721Metadata-symbol}."
      },
      "tokenURI(uint256)": {
        "details": "See {IERC721Metadata-tokenURI}."
      },
      "transferFrom(address,address,uint256)": {
        "details": "See {IERC721-transferFrom}."
      },
      "transferOwnership(address)": {
        "details": "Transfers ownership of the contract to a new account (`newOwner`). Can only be called by the current owner."
      }
    },
    "version": 1
  },
  "userdoc": {
    "kind": "user",
    "methods": {},
    "version": 1
  },
  "storageLayout": {
    "storage": [
      {
        "astId": 274,
        "contract": "contracts/SongNFT.sol:SongNFT",
        "label": "_name",
        "offset": 0,
        "slot": "0",
        "type": "t_string_storage"
      },
      {
        "astId": 276,
        "contract": "contracts/SongNFT.sol:SongNFT",
        "label": "_symbol",
        "offset": 0,
        "slot": "1",
        "type": "t_string_storage"
      },
      {
        "astId": 280,
        "contract": "contracts/SongNFT.sol:SongNFT",
        "label": "_owners",
        "offset": 0,
        "slot": "2",
        "type": "t_mapping(t_uint256,t_address)"
      },
      {
        "astId": 284,
        "contract": "contracts/SongNFT.sol:SongNFT",
        "label": "_balances",
        "offset": 0,
        "slot": "3",
        "type": "t_mapping(t_address,t_uint256)"
      },
      {
        "astId": 288,
        "contract": "contracts/SongNFT.sol:SongNFT",
        "label": "_tokenApprovals",
        "offset": 0,
        "slot": "4",
        "type": "t_mapping(t_uint256,t_address)"
      },
      {
        "astId": 294,
        "contract": "contracts/SongNFT.sol:SongNFT",
        "label": "_operatorApprovals",
        "offset": 0,
        "slot": "5",
        "type": "t_mapping(t_address,t_mapping(t_address,t_bool))"
      },
      {
        "astId": 1262,
        "contract": "contracts/SongNFT.sol:SongNFT",
        "label": "_tokenURIs",
        "offset": 0,
        "slot": "6",
        "type": "t_mapping(t_uint256,t_string_storage)"
      },
      {
        "astId": 65,
        "contract": "contracts/SongNFT.sol:SongNFT",
        "label": "_owner",
        "offset": 0,
        "slot": "7",
        "type": "t_address"
      },
      {
        "astId": 2309,
        "contract": "contracts/SongNFT.sol:SongNFT",
        "label": "amount",
        "offset": 0,
        "slot": "8",
        "type": "t_uint256"
      },
      {
        "astId": 2311,
        "contract": "contracts/SongNFT.sol:SongNFT",
        "label": "auction",
        "offset": 0,
        "slot": "9",
        "type": "t_bool"
      },
      {
        "astId": 2313,
        "contract": "contracts/SongNFT.sol:SongNFT",
        "label": "auctionAddress",
        "offset": 1,
        "slot": "9",
        "type": "t_address"
      }
    ],
    "types": {
      "t_address": {
        "encoding": "inplace",
        "label": "address",
        "numberOfBytes": "20"
      },
      "t_bool": {
        "encoding": "inplace",
        "label": "bool",
        "numberOfBytes": "1"
      },
      "t_mapping(t_address,t_bool)": {
        "encoding": "mapping",
        "key": "t_address",
        "label": "mapping(address => bool)",
        "numberOfBytes": "32",
        "value": "t_bool"
      },
      "t_mapping(t_address,t_mapping(t_address,t_bool))": {
        "encoding": "mapping",
        "key": "t_address",
        "label": "mapping(address => mapping(address => bool))",
        "numberOfBytes": "32",
        "value": "t_mapping(t_address,t_bool)"
      },
      "t_mapping(t_address,t_uint256)": {
        "encoding": "mapping",
        "key": "t_address",
        "label": "mapping(address => uint256)",
        "numberOfBytes": "32",
        "value": "t_uint256"
      },
      "t_mapping(t_uint256,t_address)": {
        "encoding": "mapping",
        "key": "t_uint256",
        "label": "mapping(uint256 => address)",
        "numberOfBytes": "32",
        "value": "t_address"
      },
      "t_mapping(t_uint256,t_string_storage)": {
        "encoding": "mapping",
        "key": "t_uint256",
        "label": "mapping(uint256 => string)",
        "numberOfBytes": "32",
        "value": "t_string_storage"
      },
      "t_string_storage": {
        "encoding": "bytes",
        "label": "string",
        "numberOfBytes": "32"
      },
      "t_uint256": {
        "encoding": "inplace",
        "label": "uint256",
        "numberOfBytes": "32"
      }
    }
  }
}