{
  "address": "0x34058A1939cFFa96DbCB0e1acf3A8313Dbf9d95C",
  "abi": [
    {
      "inputs": [
        {
          "internalType": "uint256",
          "name": "_amount",
          "type": "uint256"
        },
        {
          "internalType": "string",
          "name": "songName",
          "type": "string"
        },
        {
          "internalType": "string",
          "name": "songSymbol",
          "type": "string"
        }
      ],
      "stateMutability": "nonpayable",
      "type": "constructor"
    },
    {
      "anonymous": false,
      "inputs": [
        {
          "indexed": true,
          "internalType": "address",
          "name": "owner",
          "type": "address"
        },
        {
          "indexed": true,
          "internalType": "address",
          "name": "approved",
          "type": "address"
        },
        {
          "indexed": true,
          "internalType": "uint256",
          "name": "tokenId",
          "type": "uint256"
        }
      ],
      "name": "Approval",
      "type": "event"
    },
    {
      "anonymous": false,
      "inputs": [
        {
          "indexed": true,
          "internalType": "address",
          "name": "owner",
          "type": "address"
        },
        {
          "indexed": true,
          "internalType": "address",
          "name": "operator",
          "type": "address"
        },
        {
          "indexed": false,
          "internalType": "bool",
          "name": "approved",
          "type": "bool"
        }
      ],
      "name": "ApprovalForAll",
      "type": "event"
    },
    {
      "anonymous": false,
      "inputs": [
        {
          "indexed": true,
          "internalType": "address",
          "name": "previousOwner",
          "type": "address"
        },
        {
          "indexed": true,
          "internalType": "address",
          "name": "newOwner",
          "type": "address"
        }
      ],
      "name": "OwnershipTransferred",
      "type": "event"
    },
    {
      "anonymous": false,
      "inputs": [
        {
          "indexed": true,
          "internalType": "address",
          "name": "from",
          "type": "address"
        },
        {
          "indexed": true,
          "internalType": "address",
          "name": "to",
          "type": "address"
        },
        {
          "indexed": true,
          "internalType": "uint256",
          "name": "tokenId",
          "type": "uint256"
        }
      ],
      "name": "Transfer",
      "type": "event"
    },
    {
      "inputs": [],
      "name": "TOKEN_URI",
      "outputs": [
        {
          "internalType": "string",
          "name": "",
          "type": "string"
        }
      ],
      "stateMutability": "view",
      "type": "function"
    },
    {
      "inputs": [
        {
          "internalType": "address",
          "name": "to",
          "type": "address"
        },
        {
          "internalType": "uint256",
          "name": "tokenId",
          "type": "uint256"
        }
      ],
      "name": "approve",
      "outputs": [],
      "stateMutability": "nonpayable",
      "type": "function"
    },
    {
      "inputs": [
        {
          "internalType": "address",
          "name": "owner",
          "type": "address"
        }
      ],
      "name": "balanceOf",
      "outputs": [
        {
          "internalType": "uint256",
          "name": "",
          "type": "uint256"
        }
      ],
      "stateMutability": "view",
      "type": "function"
    },
    {
      "inputs": [
        {
          "internalType": "uint256",
          "name": "tokenId",
          "type": "uint256"
        }
      ],
      "name": "getApproved",
      "outputs": [
        {
          "internalType": "address",
          "name": "",
          "type": "address"
        }
      ],
      "stateMutability": "view",
      "type": "function"
    },
    {
      "inputs": [
        {
          "internalType": "address",
          "name": "owner",
          "type": "address"
        },
        {
          "internalType": "address",
          "name": "operator",
          "type": "address"
        }
      ],
      "name": "isApprovedForAll",
      "outputs": [
        {
          "internalType": "bool",
          "name": "",
          "type": "bool"
        }
      ],
      "stateMutability": "view",
      "type": "function"
    },
    {
      "inputs": [],
      "name": "name",
      "outputs": [
        {
          "internalType": "string",
          "name": "",
          "type": "string"
        }
      ],
      "stateMutability": "view",
      "type": "function"
    },
    {
      "inputs": [],
      "name": "owner",
      "outputs": [
        {
          "internalType": "address",
          "name": "",
          "type": "address"
        }
      ],
      "stateMutability": "view",
      "type": "function"
    },
    {
      "inputs": [
        {
          "internalType": "uint256",
          "name": "tokenId",
          "type": "uint256"
        }
      ],
      "name": "ownerOf",
      "outputs": [
        {
          "internalType": "address",
          "name": "",
          "type": "address"
        }
      ],
      "stateMutability": "view",
      "type": "function"
    },
    {
      "inputs": [],
      "name": "renounceOwnership",
      "outputs": [],
      "stateMutability": "nonpayable",
      "type": "function"
    },
    {
      "inputs": [
        {
          "internalType": "address",
          "name": "from",
          "type": "address"
        },
        {
          "internalType": "address",
          "name": "to",
          "type": "address"
        },
        {
          "internalType": "uint256",
          "name": "tokenId",
          "type": "uint256"
        }
      ],
      "name": "safeTransferFrom",
      "outputs": [],
      "stateMutability": "nonpayable",
      "type": "function"
    },
    {
      "inputs": [
        {
          "internalType": "address",
          "name": "from",
          "type": "address"
        },
        {
          "internalType": "address",
          "name": "to",
          "type": "address"
        },
        {
          "internalType": "uint256",
          "name": "tokenId",
          "type": "uint256"
        },
        {
          "internalType": "bytes",
          "name": "data",
          "type": "bytes"
        }
      ],
      "name": "safeTransferFrom",
      "outputs": [],
      "stateMutability": "nonpayable",
      "type": "function"
    },
    {
      "inputs": [
        {
          "internalType": "address",
          "name": "operator",
          "type": "address"
        },
        {
          "internalType": "bool",
          "name": "approved",
          "type": "bool"
        }
      ],
      "name": "setApprovalForAll",
      "outputs": [],
      "stateMutability": "nonpayable",
      "type": "function"
    },
    {
      "inputs": [
        {
          "internalType": "bytes4",
          "name": "interfaceId",
          "type": "bytes4"
        }
      ],
      "name": "supportsInterface",
      "outputs": [
        {
          "internalType": "bool",
          "name": "",
          "type": "bool"
        }
      ],
      "stateMutability": "view",
      "type": "function"
    },
    {
      "inputs": [],
      "name": "symbol",
      "outputs": [
        {
          "internalType": "string",
          "name": "",
          "type": "string"
        }
      ],
      "stateMutability": "view",
      "type": "function"
    },
    {
      "inputs": [
        {
          "internalType": "uint256",
          "name": "",
          "type": "uint256"
        }
      ],
      "name": "tokenId",
      "outputs": [
        {
          "internalType": "string",
          "name": "",
          "type": "string"
        }
      ],
      "stateMutability": "view",
      "type": "function"
    },
    {
      "inputs": [
        {
          "internalType": "uint256",
          "name": "tokenId",
          "type": "uint256"
        }
      ],
      "name": "tokenURI",
      "outputs": [
        {
          "internalType": "string",
          "name": "",
          "type": "string"
        }
      ],
      "stateMutability": "view",
      "type": "function"
    },
    {
      "inputs": [
        {
          "internalType": "address",
          "name": "from",
          "type": "address"
        },
        {
          "internalType": "address",
          "name": "to",
          "type": "address"
        },
        {
          "internalType": "uint256",
          "name": "tokenId",
          "type": "uint256"
        }
      ],
      "name": "transferFrom",
      "outputs": [],
      "stateMutability": "nonpayable",
      "type": "function"
    },
    {
      "inputs": [
        {
          "internalType": "address",
          "name": "newOwner",
          "type": "address"
        }
      ],
      "name": "transferOwnership",
      "outputs": [],
      "stateMutability": "nonpayable",
      "type": "function"
    }
  ],
  "transactionHash": "0x58027379944fe5f0d2e7bd0007fba59e3acb3f9e0a458384209776b3868fa756",
  "args": [
    "100",
    "Calliope",
    "Call"
  ],
  "numDeployments": 1,
  "solcInputHash": "c9856e661a8a9d1f04e853d347270811",
  "bytecode": "0x60806040523480156200001157600080fd5b50604051620034a2380380620034a28339818101604052810190620000379190620007ec565b81818160009080519060200190620000519291906200065e565b5080600190805190602001906200006a9291906200065e565b5050506200008d62000081620000af60201b60201c565b620000b760201b60201c565b82600881905550620000a633846200017d60201b60201c565b50505062000d94565b600033905090565b6000600760009054906101000a900473ffffffffffffffffffffffffffffffffffffffff16905081600760006101000a81548173ffffffffffffffffffffffffffffffffffffffff021916908373ffffffffffffffffffffffffffffffffffffffff1602179055508173ffffffffffffffffffffffffffffffffffffffff168173ffffffffffffffffffffffffffffffffffffffff167f8be0079c531659141344cd1fd0a4f28419497f9722a3daafe3b4186f6b6457e060405160405180910390a35050565b6200019f828260405180602001604052806000815250620001a360201b60201c565b5050565b620001b583836200021160201b60201c565b620001ca60008484846200040b60201b60201c565b6200020c576040517f08c379a00000000000000000000000000000000000000000000000000000000081526004016200020390620009b2565b60405180910390fd5b505050565b600073ffffffffffffffffffffffffffffffffffffffff168273ffffffffffffffffffffffffffffffffffffffff16141562000284576040517f08c379a00000000000000000000000000000000000000000000000000000000081526004016200027b90620009f6565b60405180910390fd5b6200029581620005c560201b60201c565b15620002d8576040517f08c379a0000000000000000000000000000000000000000000000000000000008152600401620002cf90620009d4565b60405180910390fd5b620002ec600083836200063160201b60201c565b6001600360008473ffffffffffffffffffffffffffffffffffffffff1673ffffffffffffffffffffffffffffffffffffffff16815260200190815260200160002060008282546200033e919062000aa4565b92505081905550816002600083815260200190815260200160002060006101000a81548173ffffffffffffffffffffffffffffffffffffffff021916908373ffffffffffffffffffffffffffffffffffffffff160217905550808273ffffffffffffffffffffffffffffffffffffffff16600073ffffffffffffffffffffffffffffffffffffffff167fddf252ad1be2c89b69c2b068fc378daa952ba7f163c4a11628f55a4df523b3ef60405160405180910390a462000407600083836200063660201b60201c565b5050565b6000620004398473ffffffffffffffffffffffffffffffffffffffff166200063b60201b62000c3c1760201c565b15620005b8578373ffffffffffffffffffffffffffffffffffffffff1663150b7a026200046b620000af60201b60201c565b8786866040518563ffffffff1660e01b81526004016200048f94939291906200095e565b602060405180830381600087803b158015620004aa57600080fd5b505af1925050508015620004de57506040513d601f19601f82011682018060405250810190620004db9190620007ba565b60015b62000567573d806000811462000511576040519150601f19603f3d011682016040523d82523d6000602084013e62000516565b606091505b506000815114156200055f576040517f08c379a00000000000000000000000000000000000000000000000000000000081526004016200055690620009b2565b60405180910390fd5b805181602001fd5b63150b7a0260e01b7bffffffffffffffffffffffffffffffffffffffffffffffffffffffff1916817bffffffffffffffffffffffffffffffffffffffffffffffffffffffff191614915050620005bd565b600190505b949350505050565b60008073ffffffffffffffffffffffffffffffffffffffff166002600084815260200190815260200160002060009054906101000a900473ffffffffffffffffffffffffffffffffffffffff1673ffffffffffffffffffffffffffffffffffffffff1614159050919050565b505050565b505050565b6000808273ffffffffffffffffffffffffffffffffffffffff163b119050919050565b8280546200066c9062000ba1565b90600052602060002090601f016020900481019282620006905760008555620006dc565b82601f10620006ab57805160ff1916838001178555620006dc565b82800160010185558215620006dc579182015b82811115620006db578251825591602001919060010190620006be565b5b509050620006eb9190620006ef565b5090565b5b808211156200070a576000816000905550600101620006f0565b5090565b6000620007256200071f8462000a41565b62000a18565b90508281526020810184848401111562000744576200074362000c9f565b5b6200075184828562000b6b565b509392505050565b6000815190506200076a8162000d60565b92915050565b600082601f83011262000788576200078762000c9a565b5b81516200079a8482602086016200070e565b91505092915050565b600081519050620007b48162000d7a565b92915050565b600060208284031215620007d357620007d262000ca9565b5b6000620007e38482850162000759565b91505092915050565b60008060006060848603121562000808576200080762000ca9565b5b60006200081886828701620007a3565b935050602084015167ffffffffffffffff8111156200083c576200083b62000ca4565b5b6200084a8682870162000770565b925050604084015167ffffffffffffffff8111156200086e576200086d62000ca4565b5b6200087c8682870162000770565b9150509250925092565b620008918162000b01565b82525050565b6000620008a48262000a77565b620008b0818562000a82565b9350620008c281856020860162000b6b565b620008cd8162000cae565b840191505092915050565b6000620008e760328362000a93565b9150620008f48262000cbf565b604082019050919050565b60006200090e601c8362000a93565b91506200091b8262000d0e565b602082019050919050565b60006200093560208362000a93565b9150620009428262000d37565b602082019050919050565b620009588162000b61565b82525050565b600060808201905062000975600083018762000886565b62000984602083018662000886565b6200099360408301856200094d565b8181036060830152620009a7818462000897565b905095945050505050565b60006020820190508181036000830152620009cd81620008d8565b9050919050565b60006020820190508181036000830152620009ef81620008ff565b9050919050565b6000602082019050818103600083015262000a118162000926565b9050919050565b600062000a2462000a37565b905062000a32828262000bd7565b919050565b6000604051905090565b600067ffffffffffffffff82111562000a5f5762000a5e62000c6b565b5b62000a6a8262000cae565b9050602081019050919050565b600081519050919050565b600082825260208201905092915050565b600082825260208201905092915050565b600062000ab18262000b61565b915062000abe8362000b61565b9250827fffffffffffffffffffffffffffffffffffffffffffffffffffffffffffffffff0382111562000af65762000af562000c0d565b5b828201905092915050565b600062000b0e8262000b41565b9050919050565b60007fffffffff0000000000000000000000000000000000000000000000000000000082169050919050565b600073ffffffffffffffffffffffffffffffffffffffff82169050919050565b6000819050919050565b60005b8381101562000b8b57808201518184015260208101905062000b6e565b8381111562000b9b576000848401525b50505050565b6000600282049050600182168062000bba57607f821691505b6020821081141562000bd15762000bd062000c3c565b5b50919050565b62000be28262000cae565b810181811067ffffffffffffffff8211171562000c045762000c0362000c6b565b5b80604052505050565b7f4e487b7100000000000000000000000000000000000000000000000000000000600052601160045260246000fd5b7f4e487b7100000000000000000000000000000000000000000000000000000000600052602260045260246000fd5b7f4e487b7100000000000000000000000000000000000000000000000000000000600052604160045260246000fd5b600080fd5b600080fd5b600080fd5b600080fd5b6000601f19601f8301169050919050565b7f4552433732313a207472616e7366657220746f206e6f6e20455243373231526560008201527f63656976657220696d706c656d656e7465720000000000000000000000000000602082015250565b7f4552433732313a20746f6b656e20616c7265616479206d696e74656400000000600082015250565b7f4552433732313a206d696e7420746f20746865207a65726f2061646472657373600082015250565b62000d6b8162000b15565b811462000d7757600080fd5b50565b62000d858162000b61565b811462000d9157600080fd5b50565b6126fe8062000da46000396000f3fe608060405234801561001057600080fd5b50600436106101165760003560e01c806378ce9035116100a2578063a22cb46511610071578063a22cb465146102e1578063b88d4fde146102fd578063c87b56dd14610319578063e985e9c514610349578063f2fde38b1461037957610116565b806378ce9035146102575780637dcb0e5f146102755780638da5cb5b146102a557806395d89b41146102c357610116565b806323b872dd116100e957806323b872dd146101b557806342842e0e146101d15780636352211e146101ed57806370a082311461021d578063715018a61461024d57610116565b806301ffc9a71461011b57806306fdde031461014b578063081812fc14610169578063095ea7b314610199575b600080fd5b61013560048036038101906101309190611a67565b610395565b6040516101429190611dca565b60405180910390f35b610153610477565b6040516101609190611de5565b60405180910390f35b610183600480360381019061017e9190611ac1565b610509565b6040516101909190611d63565b60405180910390f35b6101b360048036038101906101ae9190611a27565b61054f565b005b6101cf60048036038101906101ca9190611911565b610667565b005b6101eb60048036038101906101e69190611911565b6106c7565b005b61020760048036038101906102029190611ac1565b6106e7565b6040516102149190611d63565b60405180910390f35b610237600480360381019061023291906118a4565b610799565b6040516102449190611f67565b60405180910390f35b610255610851565b005b61025f610865565b60405161026c9190611de5565b60405180910390f35b61028f600480360381019061028a9190611ac1565b61089e565b60405161029c9190611de5565b60405180910390f35b6102ad6108dd565b6040516102ba9190611d63565b60405180910390f35b6102cb610907565b6040516102d89190611de5565b60405180910390f35b6102fb60048036038101906102f691906119e7565b610999565b005b61031760048036038101906103129190611964565b6109af565b005b610333600480360381019061032e9190611ac1565b610a11565b6040516103409190611de5565b60405180910390f35b610363600480360381019061035e91906118d1565b610b24565b6040516103709190611dca565b60405180910390f35b610393600480360381019061038e91906118a4565b610bb8565b005b60007f80ac58cd000000000000000000000000000000000000000000000000000000007bffffffffffffffffffffffffffffffffffffffffffffffffffffffff1916827bffffffffffffffffffffffffffffffffffffffffffffffffffffffff1916148061046057507f5b5e139f000000000000000000000000000000000000000000000000000000007bffffffffffffffffffffffffffffffffffffffffffffffffffffffff1916827bffffffffffffffffffffffffffffffffffffffffffffffffffffffff1916145b80610470575061046f82610c5f565b5b9050919050565b6060600080546104869061218c565b80601f01602080910402602001604051908101604052809291908181526020018280546104b29061218c565b80156104ff5780601f106104d4576101008083540402835291602001916104ff565b820191906000526020600020905b8154815290600101906020018083116104e257829003601f168201915b5050505050905090565b600061051482610cc9565b6004600083815260200190815260200160002060009054906101000a900473ffffffffffffffffffffffffffffffffffffffff169050919050565b600061055a826106e7565b90508073ffffffffffffffffffffffffffffffffffffffff168373ffffffffffffffffffffffffffffffffffffffff1614156105cb576040517f08c379a00000000000000000000000000000000000000000000000000000000081526004016105c290611f27565b60405180910390fd5b8073ffffffffffffffffffffffffffffffffffffffff166105ea610d14565b73ffffffffffffffffffffffffffffffffffffffff161480610619575061061881610613610d14565b610b24565b5b610658576040517f08c379a000000000000000000000000000000000000000000000000000000000815260040161064f90611ec7565b60405180910390fd5b6106628383610d1c565b505050565b610678610672610d14565b82610dd5565b6106b7576040517f08c379a00000000000000000000000000000000000000000000000000000000081526004016106ae90611f47565b60405180910390fd5b6106c2838383610e6a565b505050565b6106e2838383604051806020016040528060008152506109af565b505050565b6000806002600084815260200190815260200160002060009054906101000a900473ffffffffffffffffffffffffffffffffffffffff169050600073ffffffffffffffffffffffffffffffffffffffff168173ffffffffffffffffffffffffffffffffffffffff161415610790576040517f08c379a000000000000000000000000000000000000000000000000000000000815260040161078790611f07565b60405180910390fd5b80915050919050565b60008073ffffffffffffffffffffffffffffffffffffffff168273ffffffffffffffffffffffffffffffffffffffff16141561080a576040517f08c379a000000000000000000000000000000000000000000000000000000000815260040161080190611ea7565b60405180910390fd5b600360008373ffffffffffffffffffffffffffffffffffffffff1673ffffffffffffffffffffffffffffffffffffffff168152602001908152602001600020549050919050565b6108596110d1565b610863600061114f565b565b6040518060400160405280600a81526020017f2e2f6e66742e6a736f6e0000000000000000000000000000000000000000000081525081565b60606040518060400160405280600a81526020017f2e2f6e66742e6a736f6e000000000000000000000000000000000000000000008152509050919050565b6000600760009054906101000a900473ffffffffffffffffffffffffffffffffffffffff16905090565b6060600180546109169061218c565b80601f01602080910402602001604051908101604052809291908181526020018280546109429061218c565b801561098f5780601f106109645761010080835404028352916020019161098f565b820191906000526020600020905b81548152906001019060200180831161097257829003601f168201915b5050505050905090565b6109ab6109a4610d14565b8383611215565b5050565b6109c06109ba610d14565b83610dd5565b6109ff576040517f08c379a00000000000000000000000000000000000000000000000000000000081526004016109f690611f47565b60405180910390fd5b610a0b84848484611382565b50505050565b6060610a1c82610cc9565b6000600660008481526020019081526020016000208054610a3c9061218c565b80601f0160208091040260200160405190810160405280929190818152602001828054610a689061218c565b8015610ab55780601f10610a8a57610100808354040283529160200191610ab5565b820191906000526020600020905b815481529060010190602001808311610a9857829003601f168201915b505050505090506000610ac66113de565b9050600081511415610adc578192505050610b1f565b600082511115610b11578082604051602001610af9929190611d3f565b60405160208183030381529060405292505050610b1f565b610b1a846113f5565b925050505b919050565b6000600560008473ffffffffffffffffffffffffffffffffffffffff1673ffffffffffffffffffffffffffffffffffffffff16815260200190815260200160002060008373ffffffffffffffffffffffffffffffffffffffff1673ffffffffffffffffffffffffffffffffffffffff16815260200190815260200160002060009054906101000a900460ff16905092915050565b610bc06110d1565b600073ffffffffffffffffffffffffffffffffffffffff168173ffffffffffffffffffffffffffffffffffffffff161415610c30576040517f08c379a0000000000000000000000000000000000000000000000000000000008152600401610c2790611e27565b60405180910390fd5b610c398161114f565b50565b6000808273ffffffffffffffffffffffffffffffffffffffff163b119050919050565b60007f01ffc9a7000000000000000000000000000000000000000000000000000000007bffffffffffffffffffffffffffffffffffffffffffffffffffffffff1916827bffffffffffffffffffffffffffffffffffffffffffffffffffffffff1916149050919050565b610cd28161145d565b610d11576040517f08c379a0000000000000000000000000000000000000000000000000000000008152600401610d0890611f07565b60405180910390fd5b50565b600033905090565b816004600083815260200190815260200160002060006101000a81548173ffffffffffffffffffffffffffffffffffffffff021916908373ffffffffffffffffffffffffffffffffffffffff160217905550808273ffffffffffffffffffffffffffffffffffffffff16610d8f836106e7565b73ffffffffffffffffffffffffffffffffffffffff167f8c5be1e5ebec7d5bd14f71427d1e84f3dd0314c0f7b2291e5b200ac8c7c3b92560405160405180910390a45050565b600080610de1836106e7565b90508073ffffffffffffffffffffffffffffffffffffffff168473ffffffffffffffffffffffffffffffffffffffff161480610e235750610e228185610b24565b5b80610e6157508373ffffffffffffffffffffffffffffffffffffffff16610e4984610509565b73ffffffffffffffffffffffffffffffffffffffff16145b91505092915050565b8273ffffffffffffffffffffffffffffffffffffffff16610e8a826106e7565b73ffffffffffffffffffffffffffffffffffffffff1614610ee0576040517f08c379a0000000000000000000000000000000000000000000000000000000008152600401610ed790611e47565b60405180910390fd5b600073ffffffffffffffffffffffffffffffffffffffff168273ffffffffffffffffffffffffffffffffffffffff161415610f50576040517f08c379a0000000000000000000000000000000000000000000000000000000008152600401610f4790611e67565b60405180910390fd5b610f5b8383836114c9565b610f66600082610d1c565b6001600360008573ffffffffffffffffffffffffffffffffffffffff1673ffffffffffffffffffffffffffffffffffffffff1681526020019081526020016000206000828254610fb691906120a2565b925050819055506001600360008473ffffffffffffffffffffffffffffffffffffffff1673ffffffffffffffffffffffffffffffffffffffff168152602001908152602001600020600082825461100d919061201b565b92505081905550816002600083815260200190815260200160002060006101000a81548173ffffffffffffffffffffffffffffffffffffffff021916908373ffffffffffffffffffffffffffffffffffffffff160217905550808273ffffffffffffffffffffffffffffffffffffffff168473ffffffffffffffffffffffffffffffffffffffff167fddf252ad1be2c89b69c2b068fc378daa952ba7f163c4a11628f55a4df523b3ef60405160405180910390a46110cc8383836114ce565b505050565b6110d9610d14565b73ffffffffffffffffffffffffffffffffffffffff166110f76108dd565b73ffffffffffffffffffffffffffffffffffffffff161461114d576040517f08c379a000000000000000000000000000000000000000000000000000000000815260040161114490611ee7565b60405180910390fd5b565b6000600760009054906101000a900473ffffffffffffffffffffffffffffffffffffffff16905081600760006101000a81548173ffffffffffffffffffffffffffffffffffffffff021916908373ffffffffffffffffffffffffffffffffffffffff1602179055508173ffffffffffffffffffffffffffffffffffffffff168173ffffffffffffffffffffffffffffffffffffffff167f8be0079c531659141344cd1fd0a4f28419497f9722a3daafe3b4186f6b6457e060405160405180910390a35050565b8173ffffffffffffffffffffffffffffffffffffffff168373ffffffffffffffffffffffffffffffffffffffff161415611284576040517f08c379a000000000000000000000000000000000000000000000000000000000815260040161127b90611e87565b60405180910390fd5b80600560008573ffffffffffffffffffffffffffffffffffffffff1673ffffffffffffffffffffffffffffffffffffffff16815260200190815260200160002060008473ffffffffffffffffffffffffffffffffffffffff1673ffffffffffffffffffffffffffffffffffffffff16815260200190815260200160002060006101000a81548160ff0219169083151502179055508173ffffffffffffffffffffffffffffffffffffffff168373ffffffffffffffffffffffffffffffffffffffff167f17307eab39ab6107e8899845ad3d59bd9653f200f220920489ca2b5937696c31836040516113759190611dca565b60405180910390a3505050565b61138d848484610e6a565b611399848484846114d3565b6113d8576040517f08c379a00000000000000000000000000000000000000000000000000000000081526004016113cf90611e07565b60405180910390fd5b50505050565b606060405180602001604052806000815250905090565b606061140082610cc9565b600061140a6113de565b9050600081511161142a5760405180602001604052806000815250611455565b806114348461166a565b604051602001611445929190611d3f565b6040516020818303038152906040525b915050919050565b60008073ffffffffffffffffffffffffffffffffffffffff166002600084815260200190815260200160002060009054906101000a900473ffffffffffffffffffffffffffffffffffffffff1673ffffffffffffffffffffffffffffffffffffffff1614159050919050565b505050565b505050565b60006114f48473ffffffffffffffffffffffffffffffffffffffff16610c3c565b1561165d578373ffffffffffffffffffffffffffffffffffffffff1663150b7a0261151d610d14565b8786866040518563ffffffff1660e01b815260040161153f9493929190611d7e565b602060405180830381600087803b15801561155957600080fd5b505af192505050801561158a57506040513d601f19601f820116820180604052508101906115879190611a94565b60015b61160d573d80600081146115ba576040519150601f19603f3d011682016040523d82523d6000602084013e6115bf565b606091505b50600081511415611605576040517f08c379a00000000000000000000000000000000000000000000000000000000081526004016115fc90611e07565b60405180910390fd5b805181602001fd5b63150b7a0260e01b7bffffffffffffffffffffffffffffffffffffffffffffffffffffffff1916817bffffffffffffffffffffffffffffffffffffffffffffffffffffffff191614915050611662565b600190505b949350505050565b606060008214156116b2576040518060400160405280600181526020017f300000000000000000000000000000000000000000000000000000000000000081525090506117c6565b600082905060005b600082146116e45780806116cd906121ef565b915050600a826116dd9190612071565b91506116ba565b60008167ffffffffffffffff811115611700576116ff612325565b5b6040519080825280601f01601f1916602001820160405280156117325781602001600182028036833780820191505090505b5090505b600085146117bf5760018261174b91906120a2565b9150600a8561175a9190612238565b6030611766919061201b565b60f81b81838151811061177c5761177b6122f6565b5b60200101907effffffffffffffffffffffffffffffffffffffffffffffffffffffffffffff1916908160001a905350600a856117b89190612071565b9450611736565b8093505050505b919050565b60006117de6117d984611fa7565b611f82565b9050828152602081018484840111156117fa576117f9612359565b5b61180584828561214a565b509392505050565b60008135905061181c8161266c565b92915050565b60008135905061183181612683565b92915050565b6000813590506118468161269a565b92915050565b60008151905061185b8161269a565b92915050565b600082601f83011261187657611875612354565b5b81356118868482602086016117cb565b91505092915050565b60008135905061189e816126b1565b92915050565b6000602082840312156118ba576118b9612363565b5b60006118c88482850161180d565b91505092915050565b600080604083850312156118e8576118e7612363565b5b60006118f68582860161180d565b92505060206119078582860161180d565b9150509250929050565b60008060006060848603121561192a57611929612363565b5b60006119388682870161180d565b93505060206119498682870161180d565b925050604061195a8682870161188f565b9150509250925092565b6000806000806080858703121561197e5761197d612363565b5b600061198c8782880161180d565b945050602061199d8782880161180d565b93505060406119ae8782880161188f565b925050606085013567ffffffffffffffff8111156119cf576119ce61235e565b5b6119db87828801611861565b91505092959194509250565b600080604083850312156119fe576119fd612363565b5b6000611a0c8582860161180d565b9250506020611a1d85828601611822565b9150509250929050565b60008060408385031215611a3e57611a3d612363565b5b6000611a4c8582860161180d565b9250506020611a5d8582860161188f565b9150509250929050565b600060208284031215611a7d57611a7c612363565b5b6000611a8b84828501611837565b91505092915050565b600060208284031215611aaa57611aa9612363565b5b6000611ab88482850161184c565b91505092915050565b600060208284031215611ad757611ad6612363565b5b6000611ae58482850161188f565b91505092915050565b611af7816120d6565b82525050565b611b06816120e8565b82525050565b6000611b1782611fd8565b611b218185611fee565b9350611b31818560208601612159565b611b3a81612368565b840191505092915050565b6000611b5082611fe3565b611b5a8185611fff565b9350611b6a818560208601612159565b611b7381612368565b840191505092915050565b6000611b8982611fe3565b611b938185612010565b9350611ba3818560208601612159565b80840191505092915050565b6000611bbc603283611fff565b9150611bc782612379565b604082019050919050565b6000611bdf602683611fff565b9150611bea826123c8565b604082019050919050565b6000611c02602583611fff565b9150611c0d82612417565b604082019050919050565b6000611c25602483611fff565b9150611c3082612466565b604082019050919050565b6000611c48601983611fff565b9150611c53826124b5565b602082019050919050565b6000611c6b602983611fff565b9150611c76826124de565b604082019050919050565b6000611c8e603e83611fff565b9150611c998261252d565b604082019050919050565b6000611cb1602083611fff565b9150611cbc8261257c565b602082019050919050565b6000611cd4601883611fff565b9150611cdf826125a5565b602082019050919050565b6000611cf7602183611fff565b9150611d02826125ce565b604082019050919050565b6000611d1a602e83611fff565b9150611d258261261d565b604082019050919050565b611d3981612140565b82525050565b6000611d4b8285611b7e565b9150611d578284611b7e565b91508190509392505050565b6000602082019050611d786000830184611aee565b92915050565b6000608082019050611d936000830187611aee565b611da06020830186611aee565b611dad6040830185611d30565b8181036060830152611dbf8184611b0c565b905095945050505050565b6000602082019050611ddf6000830184611afd565b92915050565b60006020820190508181036000830152611dff8184611b45565b905092915050565b60006020820190508181036000830152611e2081611baf565b9050919050565b60006020820190508181036000830152611e4081611bd2565b9050919050565b60006020820190508181036000830152611e6081611bf5565b9050919050565b60006020820190508181036000830152611e8081611c18565b9050919050565b60006020820190508181036000830152611ea081611c3b565b9050919050565b60006020820190508181036000830152611ec081611c5e565b9050919050565b60006020820190508181036000830152611ee081611c81565b9050919050565b60006020820190508181036000830152611f0081611ca4565b9050919050565b60006020820190508181036000830152611f2081611cc7565b9050919050565b60006020820190508181036000830152611f4081611cea565b9050919050565b60006020820190508181036000830152611f6081611d0d565b9050919050565b6000602082019050611f7c6000830184611d30565b92915050565b6000611f8c611f9d565b9050611f9882826121be565b919050565b6000604051905090565b600067ffffffffffffffff821115611fc257611fc1612325565b5b611fcb82612368565b9050602081019050919050565b600081519050919050565b600081519050919050565b600082825260208201905092915050565b600082825260208201905092915050565b600081905092915050565b600061202682612140565b915061203183612140565b9250827fffffffffffffffffffffffffffffffffffffffffffffffffffffffffffffffff0382111561206657612065612269565b5b828201905092915050565b600061207c82612140565b915061208783612140565b92508261209757612096612298565b5b828204905092915050565b60006120ad82612140565b91506120b883612140565b9250828210156120cb576120ca612269565b5b828203905092915050565b60006120e182612120565b9050919050565b60008115159050919050565b60007fffffffff0000000000000000000000000000000000000000000000000000000082169050919050565b600073ffffffffffffffffffffffffffffffffffffffff82169050919050565b6000819050919050565b82818337600083830152505050565b60005b8381101561217757808201518184015260208101905061215c565b83811115612186576000848401525b50505050565b600060028204905060018216806121a457607f821691505b602082108114156121b8576121b76122c7565b5b50919050565b6121c782612368565b810181811067ffffffffffffffff821117156121e6576121e5612325565b5b80604052505050565b60006121fa82612140565b91507fffffffffffffffffffffffffffffffffffffffffffffffffffffffffffffffff82141561222d5761222c612269565b5b600182019050919050565b600061224382612140565b915061224e83612140565b92508261225e5761225d612298565b5b828206905092915050565b7f4e487b7100000000000000000000000000000000000000000000000000000000600052601160045260246000fd5b7f4e487b7100000000000000000000000000000000000000000000000000000000600052601260045260246000fd5b7f4e487b7100000000000000000000000000000000000000000000000000000000600052602260045260246000fd5b7f4e487b7100000000000000000000000000000000000000000000000000000000600052603260045260246000fd5b7f4e487b7100000000000000000000000000000000000000000000000000000000600052604160045260246000fd5b600080fd5b600080fd5b600080fd5b600080fd5b6000601f19601f8301169050919050565b7f4552433732313a207472616e7366657220746f206e6f6e20455243373231526560008201527f63656976657220696d706c656d656e7465720000000000000000000000000000602082015250565b7f4f776e61626c653a206e6577206f776e657220697320746865207a65726f206160008201527f6464726573730000000000000000000000000000000000000000000000000000602082015250565b7f4552433732313a207472616e736665722066726f6d20696e636f72726563742060008201527f6f776e6572000000000000000000000000000000000000000000000000000000602082015250565b7f4552433732313a207472616e7366657220746f20746865207a65726f2061646460008201527f7265737300000000000000000000000000000000000000000000000000000000602082015250565b7f4552433732313a20617070726f766520746f2063616c6c657200000000000000600082015250565b7f4552433732313a2061646472657373207a65726f206973206e6f74206120766160008201527f6c6964206f776e65720000000000000000000000000000000000000000000000602082015250565b7f4552433732313a20617070726f76652063616c6c6572206973206e6f7420746f60008201527f6b656e206f776e6572206e6f7220617070726f76656420666f7220616c6c0000602082015250565b7f4f776e61626c653a2063616c6c6572206973206e6f7420746865206f776e6572600082015250565b7f4552433732313a20696e76616c696420746f6b656e2049440000000000000000600082015250565b7f4552433732313a20617070726f76616c20746f2063757272656e74206f776e6560008201527f7200000000000000000000000000000000000000000000000000000000000000602082015250565b7f4552433732313a2063616c6c6572206973206e6f7420746f6b656e206f776e6560008201527f72206e6f7220617070726f766564000000000000000000000000000000000000602082015250565b612675816120d6565b811461268057600080fd5b50565b61268c816120e8565b811461269757600080fd5b50565b6126a3816120f4565b81146126ae57600080fd5b50565b6126ba81612140565b81146126c557600080fd5b5056fea26469706673582212208cd34ee0a458721207afa09bf0e750a506ac2a92532c24839b2e4f149c223b3d64736f6c63430008070033",
  "devdoc": {
    "kind": "dev",
    "methods": {
      "approve(address,uint256)": {
        "details": "See {IERC721-approve}."
      },
      "balanceOf(address)": {
        "details": "See {IERC721-balanceOf}."
      },
      "getApproved(uint256)": {
        "details": "See {IERC721-getApproved}."
      },
      "isApprovedForAll(address,address)": {
        "details": "See {IERC721-isApprovedForAll}."
      },
      "name()": {
        "details": "See {IERC721Metadata-name}."
      },
      "owner()": {
        "details": "Returns the address of the current owner."
      },
      "ownerOf(uint256)": {
        "details": "See {IERC721-ownerOf}."
      },
      "renounceOwnership()": {
        "details": "Leaves the contract without owner. It will not be possible to call `onlyOwner` functions anymore. Can only be called by the current owner. NOTE: Renouncing ownership will leave the contract without an owner, thereby removing any functionality that is only available to the owner."
      },
      "safeTransferFrom(address,address,uint256)": {
        "details": "See {IERC721-safeTransferFrom}."
      },
      "safeTransferFrom(address,address,uint256,bytes)": {
        "details": "See {IERC721-safeTransferFrom}."
      },
      "setApprovalForAll(address,bool)": {
        "details": "See {IERC721-setApprovalForAll}."
      },
      "supportsInterface(bytes4)": {
        "details": "See {IERC165-supportsInterface}."
      },
      "symbol()": {
        "details": "See {IERC721Metadata-symbol}."
      },
      "tokenURI(uint256)": {
        "details": "See {IERC721Metadata-tokenURI}."
      },
      "transferFrom(address,address,uint256)": {
        "details": "See {IERC721-transferFrom}."
      },
      "transferOwnership(address)": {
        "details": "Transfers ownership of the contract to a new account (`newOwner`). Can only be called by the current owner."
      }
    },
    "version": 1
  },
  "userdoc": {
    "kind": "user",
    "methods": {},
    "version": 1
  },
  "storageLayout": {
    "storage": [
      {
        "astId": 274,
        "contract": "contracts/SongNFT.sol:SongNFT",
        "label": "_name",
        "offset": 0,
        "slot": "0",
        "type": "t_string_storage"
      },
      {
        "astId": 276,
        "contract": "contracts/SongNFT.sol:SongNFT",
        "label": "_symbol",
        "offset": 0,
        "slot": "1",
        "type": "t_string_storage"
      },
      {
        "astId": 280,
        "contract": "contracts/SongNFT.sol:SongNFT",
        "label": "_owners",
        "offset": 0,
        "slot": "2",
        "type": "t_mapping(t_uint256,t_address)"
      },
      {
        "astId": 284,
        "contract": "contracts/SongNFT.sol:SongNFT",
        "label": "_balances",
        "offset": 0,
        "slot": "3",
        "type": "t_mapping(t_address,t_uint256)"
      },
      {
        "astId": 288,
        "contract": "contracts/SongNFT.sol:SongNFT",
        "label": "_tokenApprovals",
        "offset": 0,
        "slot": "4",
        "type": "t_mapping(t_uint256,t_address)"
      },
      {
        "astId": 294,
        "contract": "contracts/SongNFT.sol:SongNFT",
        "label": "_operatorApprovals",
        "offset": 0,
        "slot": "5",
        "type": "t_mapping(t_address,t_mapping(t_address,t_bool))"
      },
      {
        "astId": 1262,
        "contract": "contracts/SongNFT.sol:SongNFT",
        "label": "_tokenURIs",
        "offset": 0,
        "slot": "6",
        "type": "t_mapping(t_uint256,t_string_storage)"
      },
      {
        "astId": 65,
        "contract": "contracts/SongNFT.sol:SongNFT",
        "label": "_owner",
        "offset": 0,
        "slot": "7",
        "type": "t_address"
      },
      {
        "astId": 2386,
        "contract": "contracts/SongNFT.sol:SongNFT",
        "label": "amount",
        "offset": 0,
        "slot": "8",
        "type": "t_uint256"
      }
    ],
    "types": {
      "t_address": {
        "encoding": "inplace",
        "label": "address",
        "numberOfBytes": "20"
      },
      "t_bool": {
        "encoding": "inplace",
        "label": "bool",
        "numberOfBytes": "1"
      },
      "t_mapping(t_address,t_bool)": {
        "encoding": "mapping",
        "key": "t_address",
        "label": "mapping(address => bool)",
        "numberOfBytes": "32",
        "value": "t_bool"
      },
      "t_mapping(t_address,t_mapping(t_address,t_bool))": {
        "encoding": "mapping",
        "key": "t_address",
        "label": "mapping(address => mapping(address => bool))",
        "numberOfBytes": "32",
        "value": "t_mapping(t_address,t_bool)"
      },
      "t_mapping(t_address,t_uint256)": {
        "encoding": "mapping",
        "key": "t_address",
        "label": "mapping(address => uint256)",
        "numberOfBytes": "32",
        "value": "t_uint256"
      },
      "t_mapping(t_uint256,t_address)": {
        "encoding": "mapping",
        "key": "t_uint256",
        "label": "mapping(uint256 => address)",
        "numberOfBytes": "32",
        "value": "t_address"
      },
      "t_mapping(t_uint256,t_string_storage)": {
        "encoding": "mapping",
        "key": "t_uint256",
        "label": "mapping(uint256 => string)",
        "numberOfBytes": "32",
        "value": "t_string_storage"
      },
      "t_string_storage": {
        "encoding": "bytes",
        "label": "string",
        "numberOfBytes": "32"
      },
      "t_uint256": {
        "encoding": "inplace",
        "label": "uint256",
        "numberOfBytes": "32"
      }
    }
  }
}